:100000000C9434000C944B000C9449000C9449005F
:100010000C9449000C9449000C9449000C9449003C
:100020000C9449000C9449000C9449000C9449002C
:100030000C9449000C9449000C9449000C9449001C
:100040000C9449000C9449000C9449000C946000F5
:100050000C9449000C9449000C9449000C944900FC
:100060000C9449000C94490011241FBECFEFD8E036
:10007000DEBFCDBF11E0A0E0B1E0EAE5F1E002C0F3
:1000800005900D92A031B107D9F70E9490000C9411
:10009000AB000C9400001F920F920FB60F92112428
:1000A0008F93EF93FF93E1ECF0E080818062808397
:1000B000FF91EF918F910F900FBE0F901F901895A9
:1000C0001F920F920FB60F9211248F939F93EF936D
:1000D000FF93E0910001F09101018081882361F09C
:1000E0008093C60080910001909101010196909348
:1000F0000101809300010BC0E1ECF0E080818F7D75
:10010000808382E091E09093010180930001FF9150
:10011000EF919F918F910F900FBE0F901F901895A8
:100120008AB1806F8AB95A9AE9E6F0E080818260EC
:100130008083E89A1092C50087E68093C400E1ECC2
:10014000F0E0808188618083E2ECF0E0808186606D
:0A01500080837894FFCFF894FFCF6E
:10015A00020148656C6C6F20576F726C640A0D005F
:00000001FF
