S00A000045372E737265639E
S11300000C9434000C945B000C949D000C945100EF
S11300100C9451000C9451000C9451000C94510018
S11300200C9451000C9451000C9451000C94510008
S11300300C9451000C9451000C9451000C945100F8
S11300400C9451000C9451000C9451000C945100E8
S11300500C9451000C9451000C9451000C945100D8
S11300600C9451000C94510011241FBECFEFD8E022
S1130070DEBFCDBF11E0A0E0B1E0E8EEF1E002C0E8
S113008005900D92A230B107D9F721E0A2E0B1E0CA
S113009001C01D92A330B207E1F70E94CF000C9477
S11300A0F2000C940000E0ECF0E0908195FFFDCFAD
S11300B08093C60008951F920F920FB60F921124D9
S11300C02F933F934F935F936F937F938F939F935C
S11300D0AF93BF93EF93FF93809100018F5F809361
S11300E00001809100018B3518F081E480930001B8
S11300F0809100010E945300809102018F5F8093E0
S113010002018BB190910201282F2F7030E1939F4F
S1130110C0011124822B8BB9FF91EF91BF91AF9154
S11301209F918F917F916F915F914F913F912F910B
S11301300F900FBE0F901F9018951F920F920FB63D
S11301400F9211242F933F934F935F936F937F9359
S11301508F939F93AF93BF93EF93FF93809100018D
S113016081508093000180910001813418F48AE564
S113017080930001809100010E945300FF91EF9150
S1130180BF91AF919F918F917F916F915F914F91AB
S11301903F912F910F900FBE0F901F9018958AB129
S11301A0806F8AB95A9A5B9AE9E6F0E080818260AE
S11301B08083808188608083E89AE99A1092C500E0
S11301C087E68093C400E1ECF0E08081886180835D
S11301D0A2ECB0E08C9186608C93808180688083EF
S10B01E07894FFCFF894FFCFDF
S10501E84100D0
S9030000FC
