:100000000C9434000C9449000C9449000C94490061
:100010000C9449000C9449000C9449000C9449003C
:100020000C9449000C9449000C9449000C9449002C
:100030000C9449000C9449000C9449000C9449001C
:100040000C9449000C9449000C9449000C9449000C
:100050000C9449000C9449000C9449000C944900FC
:100060000C9449000C94490011241FBECFEFD8E036
:10007000DEBFCDBF12E0A0E0B1E0EEE3F1E002C0F0
:1000800005900D92A231B107D9F70E946A000C9435
:100090009D000C940000E0ECF0E0908195FFFDCF16
:1000A0008093C6000895CF93DF93EC018881882365
:1000B00031F021960E944B0089918111FBCFDF9195
:1000C000CF910895E0ECF0E080818823ECF78091F7
:1000D000C60008951092C50087E68093C400E1EC45
:1000E000F0E0808188618083E2ECF0E080818660CE
:1000F000808380E091E00E9453000E94620082367B
:1001000049F0883661F0813699F48BEB91E00E94DA
:100110005300F3CF81ED91E00E945300EECF87EEC4
:1001200091E00E94530080E091E00E945300E5CFEF
:0E01300089EE91E00E945300E0CFF894FFCFDB
:10013E002D2D2D2D2D2D2D2D2D2D2D2D2D2D2D2DE1
:10014E002D2D2D2D2D2D2D2D2D2D2D0A0D54686976
:10015E007320697320746865206D61696E206D650A
:10016E006E752E2053656C656374206F6E6520630B
:10017E00686F6963653A0A0D2D2D2D2D2D2D2D2DB0
:10018E002D2D2D2D2D2D2D2D2D2D2D2D2D2D2D2D91
:10019E002D2D2D0A0D613A2063686F696365202746
:1001AE0061270A0D623A2063686F696365202762D2
:1001BE00270A0D0A0D683A2053686F772074686518
:1001CE00206D656E7520616761696E0A0D2D2D2D8E
:1001DE002D2D2D2D2D2D2D2D2D2D2D2D2D2D2D2D41
:1001EE002D2D2D2D2D2D2D2D0A0D00596F752070B5
:1001FE0072657373656420616E202761272E0A0D68
:10020E0000596F75207072657373656420616E207E
:10021E002762272E0A0D000C004920646F6E27748A
:10022E00206B6E6F77207768617420746F20646F17
:10023E0020776974682074686174206B65792E0A62
:02024E000D00A1
:00000001FF
