:100000000C9434000C943E000C943E000C943E0082
:100010000C943E000C943E000C943E000C943E0068
:100020000C943E000C943E000C943E000C943E0058
:100030000C943E000C943E000C943E000C943E0048
:100040000C943E000C943E000C943E000C943E0038
:100050000C943E000C943E000C943E000C943E0028
:100060000C943E000C943E0011241FBECFEFD8E04C
:10007000DEBFCDBF0E9451000C9462000C940000C2
:100080004A990DC08FE39CE90197F1F700C0000089
:1000900089B182FB992790F981E08927089581E051
:1000A0000895539A5A9AC8E00E944000EFE3FCE991
:1000B0003197F1F700C000008111F6CF8BB18C278A
:0800C0008BB9F2CFF894FFCFD9
:00000001FF
