S00A000045322E73726563A3
S11300000C9434000C9449000C9449000C9449005D
S11300100C9449000C9449000C9449000C94490038
S11300200C9449000C9449000C9449000C94490028
S11300300C9449000C9449000C9449000C94490018
S11300400C9449000C9449000C9449000C94490008
S11300500C9449000C9449000C9449000C944900F8
S11300600C9449000C94490011241FBECFEFD8E032
S1130070DEBFCDBF11E0A0E0B1E0E8E0F1E002C0F6
S113008005900D92A631B107D9F70E946A000C942D
S113009082000C940000E0ECF0E0908195FFFDCF2D
S11300A08093C6000895CF93DF93EC018881882361
S11300B031F021960E944B0089918111FBCFDF9191
S11300C0CF910895E0ECF0E080818823ECF78091F3
S11300D0C60008951092C50087E68093C400E1EC41
S11300E0F0E0808188618083E2ECF0E080818660CA
S11300F0808380E091E00E9453000E9462000E948D
S10B01004B00FBCFF894FFCF84
S1130108555341525420696E696369616C697A6117
S109011864610A0D000001
S9030000FC
