S00A000045332E73726563A2
S11300000C9434000C9451000C9451000C94510045
S11300100C9451000C9451000C9451000C94510018
S11300200C9451000C9451000C9451000C94510008
S11300300C9451000C9451000C9451000C945100F8
S11300400C9451000C9451000C9451000C945100E8
S11300500C9451000C9451000C9451000C945100D8
S11300600C9451000C94510011241FBECFEFD8E022
S1130070DEBFCDBF11E0A0E0B1E0E8E7F3E002C0ED
S113008005900D92A239B107D9F721E0A2E9B1E0B8
S113009001C01D92A639B207E1F70E94DD000C945D
S11300A0BA010C940000EAE7F0E09081906190833B
S11300B0ACE7B0E09C91907F9C939C91892B8C93AE
S11300C080818064808380818823E9F38091780033
S11300D0909179000895FF920F931F93CF93DF932C
S11300E0F82ED62F0E945300DD23C9F1C0E000E0B2
S11300F010E08F2D0E945300080F191FCF5FDC13EF
S1130100F8CFD43081F028F4D13089F1D23041F0E5
S113011028C0D031A1F0D032C9F0D83011F508C0D0
S11301201695079524C016950795169507951FC033
S113013016950795169507951695079518C0129567
S113014002950F7001271F70012711C0169507959E
S1130150129502950F7001271F70012708C000E057
S113016010E06D2F70E0C8010E947C018B01C80172
S1130170DF91CF911F910F91FF900895E0ECF0E093
S1130180908195FFFDCF8093C6000895CF93DF93B0
S1130190EC018881882331F021960E94BE00899168
S11301A08111FBCFDF91CF910895E0ECF0E08081E5
S11301B08823ECF78091C6000895CF93DF9300D095
S11301C000D01F92CDB7DEB7209AECE7F0E0808133
S11301D08073808380818064808380818083EAE768
S11301E0F0E08081108280818760808380818068D4
S11301F080831092C50087E68093C400E1ECF0E0B0
S1130200808188618083E2ECF0E080818660808375
S113021080E091E00E94C60088E091E00E94C60060
S113022084E291E00E94C6008AE491E00E94C60044
S11302300E94D500182F0E94BE0085E091E00E9424
S1130240C600113319F0123351F148C060E180E067
S11302500E946B0090939501809394018091940186
S1130260909195018115924010F4289A01C0289824
S113027080919401909195014AE0BE016F5F7F4F98
S11302800E9490018EE591E00E94C600CE01019685
S11302900E94C60085E091E00E94C60023C060E190
S11302A081E00E946B00909393018093920180916E
S11302B09201909193014AE0BE016F5F7F4F0E94CB
S11302C090018AE691E00E94C600CE0101960E9448
S11302D0C60085E091E00E94C60004C080E891E079
S11302E00E94C6008FEF93ED20E3815090402040A0
S11302F0E1F700C000008CCFAA1BBB1B51E107C073
S1130300AA1FBB1FA617B70710F0A61BB70B881FA1
S1130310991F5A95A9F780959095BC01CD01089530
S1130320BB27FB015527AA27880F991FAA1FA417CB
S113033010F0A41B83955051B9F7A05DAA3308F0BF
S1130340A95DA193009779F7B111B1931192CB01F3
S11303500C94AA01DC01FC01672F71917723E1F76A
S1130360329704C07C916D9370836291AE17BF077E
S10B0370C8F30895F894FFCFCF
S11303784D656E753A0D0A00312E204D6561737511
S113038872656D656E74206F6620746865204C44D0
S1130398520D0A00322E204D6561737572656D65C4
S11303A86E74206F662074686520706F74656E744F
S11303B8696F6D657465720D0A00456E7465722007
S11303C8796F75722063686F6963653A20004C44DD
S11303D8522076616C75653A2000506F74656E74AE
S11303E8696F6D657465722076616C75653A200075
S11303F8496E76616C69642063686F6963650D0A88
S10504080000EE
S9030000FC
