S00A000045342E73726563A1
S11300000C9434000C9448000C9446000C94460064
S11300100C9446000C9446000C9446000C94460044
S11300200C9446000C9446000C9446000C94460034
S11300300C9446000C9446000C9446000C94460024
S11300400C9446000C9446000C9446000C94460014
S11300500C9446000C9446000C9446000C94460004
S11300600C9446000C94460011241FBECFEFD8E038
S1130070DEBFCDBF21E0A0E0B1E001C01D92A13000
S1130080B207E1F70E946B000C948C000C94000002
S11300901F920F920FB60F9211248F939F938FE3A9
S11300A09CE90197F1F700C000004A990DC08091C6
S11300B000018F5F8093000180910001843010F073
S11300C0109200014A9BFECF9F918F910F900FBE1B
S11300D00F901F9018958AB1806F8AB95A9AE9E6F1
S11300E0F0E0808182608083E89A789444EA34EF77
S11300F024E594E080910001813041F028F08230C1
S113010039F0833039F0F6CF3BB9F4CF4BB9F2CFA5
S10F01102BB9F0CF9BB9EECFF894FFCFD1
S9030000FC
