:100000000C9434000C9453000C9451000C94510047
:100010000C9451000C9451000C9451000C9451001C
:100020000C9451000C9451000C9451000C9451000C
:100030000C9451000C9451000C9451000C945100FC
:100040000C9451000C9451000C9451000C945100EC
:100050000C9451000C9451000C9451000C945100DC
:100060000C9451000C94510011241FBECFEFD8E026
:10007000DEBFCDBF11E0A0E0B1E0EEE1F1E002C0F3
:1000800005900D92A230B107D9F721E0A2E0B1E0CE
:1000900001C01D92A330B207E1F70E9476000C94D4
:1000A0008D000C9400001F920F920FB60F92112436
:1000B0008F939F938FE39CE90197F1F700C00000B5
:1000C0004A990DC09091020180910001981728F47F
:1000D000809102018F5F809302014A9BFECF9F9126
:1000E0008F910F900FBE0F901F9018958AB1806F5F
:1000F0008AB95A9AE9E6F0E0808182608083E89AC2
:1001000078948BB190910201282F2F7030E1939F4A
:0E011000C0011124822B8BB9F4CFF894FFCFDD
:02011E000400DB
:00000001FF
