:100000000C9434000C943E000C943E000C943E0082
:100010000C943E000C943E000C943E000C943E0068
:100020000C943E000C943E000C943E000C943E0058
:100030000C943E000C943E000C943E000C943E0048
:100040000C943E000C943E000C9450000C943E0026
:100050000C943E000C943E000C943E000C943E0028
:100060000C943E000C943E0011241FBECFEFD8E04C
:10007000DEBFCDBF0E947B000C948F000C9400006B
:10008000E0ECF0E0908195FFFDCF8093C6000895ED
:10009000E0ECF0E080818823ECF78091C6000895C1
:1000A0001F920F920FB60F9211242F933F934F93ED
:1000B0005F936F937F938F939F93AF93BF93EF93D0
:1000C000FF930E9448009FE9980F9A3108F48052EC
:1000D0000E944000FF91EF91BF91AF919F918F914E
:1000E0007F916F915F914F913F912F910F900FBE34
:1000F0000F901F9018951092C50087E68093C4005A
:10010000E1ECF0E0808188618083A2ECB0E08C912A
:1001100086608C938081806880837894FFCFF89488
:02012000FFCF0F
:00000001FF
