:100000000C9434000C943E000C943E000C943E0082
:100010000C943E000C943E000C943E000C943E0068
:100020000C943E000C943E000C943E000C943E0058
:100030000C943E000C943E000C943E000C943E0048
:100040000C943E000C943E000C943E000C943E0038
:100050000C943E000C943E000C943E000C943E0028
:100060000C943E000C943E0011241FBECFEFD8E04C
:10007000DEBFCDBF0E9440000C946B000C940000CA
:100080008AB18C6B8AB920E030E08BB1837C8BB96C
:100090004FEF83ED90E3415080409040E1F700C086
:1000A00000008BB1922F990F990F90958068892B42
:1000B0008BB92F30310519F02F5F3F4F02C020E080
:1000C00030E04FEF83ED90E3415080409040E1F706
:0A00D00000C00000DACFF894FFCF63
:00000001FF
