:100000000C9434000C9449000C9449000C94490061
:100010000C9449000C9449000C9449000C9449003C
:100020000C9449000C9449000C9449000C9449002C
:100030000C9449000C9449000C9449000C9449001C
:100040000C9449000C9449000C9449000C9449000C
:100050000C9449000C9449000C9449000C944900FC
:100060000C9449000C94490011241FBECFEFD8E036
:10007000DEBFCDBF11E0A0E0B1E0E0EFF0E002C0F4
:1000800005900D92A031B107D9F70E9462000C943F
:1000900076000C940000E0ECF0E0908195FFFDCF3D
:1000A0008093C6000895CF93DF93EC018881882365
:1000B00031F021960E944B0089918111FBCFDF9195
:1000C000CF9108951092C50087E68093C400E1ECBB
:1000D000F0E0808188618083E2ECF0E080818660DE
:1000E000808380E091E00E945300FBCFF894FFCF23
:1000F00048656C6C6F20776F726C64200A0D00008D
:00000001FF
