:100000000C9434000C943E000C943E000C943E0082
:100010000C943E000C943E000C943E000C943E0068
:100020000C943E000C943E000C943E000C943E0058
:100030000C943E000C943E000C943E000C943E0048
:100040000C943E000C943E000C943E000C943E0038
:100050000C943E000C943E000C943E000C943E0028
:100060000C943E000C943E0011241FBECFEFD8E04C
:10007000DEBFCDBF0E946F000C9401010C94000004
:10008000EAE7F0E0908190619083ACE7B0E09C916A
:10009000907F9C939C91892B8C938081806480833A
:1000A00080818823E9F38091780090917900089508
:1000B000E0ECF0E0908195FFFDCF8093C6000895BD
:1000C000CF93DF93EC018881882331F021960E9441
:1000D000580089918111FBCFDF91CF910895CF9383
:1000E000DF9300D000D01F92CDB7DEB78AB188670A
:1000F0008AB95A9A1092C50087E68093C400E1EC51
:10010000F0E0808188618083E2ECF0E080818660AD
:100110008083ECE7F0E0808180738083808180645D
:10012000808380818083EAE7F0E080811082808193
:100130008760808380818068808380E00E944000A7
:100140008C014AE0BE016F5F7F4F0E94D700CE0155
:1001500001960E9460008AE00E9458002FEF81EE15
:1001600094E0215080409040E1F700C000008BB146
:100170001BB8C80101978F3F910510F45B9ADDCF42
:10018000C8019A958130914010F45C9AD6CFC8018D
:10019000815092408F3F910509F010F45D9ACDCFC8
:1001A000015013400F3F110540F65E9AC6CFBB27A2
:1001B000FB015527AA27880F991FAA1FA41710F023
:1001C000A41B83955051B9F7A05DAA3308F0A95D2F
:1001D000A193009779F7B111B1931192CB010C94CF
:1001E000F100DC01FC01672F71917723E1F7329771
:1001F00004C07C916D9370836291AE17BF07C8F302
:060200000895F894FFCF01
:00000001FF
